:03000000020006F5
:03005F0002000399
:0300030002006296
:20006200D2A012007A12007A12007A12007A12007AC2A012007A80E87F8A7EC3DFFEDEFCF9
:01008200225B
:06003500E478FFF6D8FD9F
:200013007900E94400601B7A00900087780175A000E493F2A308B8000205A0D9F4DAF2750C
:02003300A0FF2C
:20003B007800E84400600A790175A000E4F309D8FC7800E84400600C7900900001E4F0A3C3
:04005B00D8FCD9FAFA
:0D000600758107120083E58260030200038C
:040083007582002260
:00000001FF
