:03000000020006F5
:06005F0075080002000319
:0300030002006593
:20006500C2A0B2A07F00C3EF950850030F80F70508B2A07F00AD087E0074FFC39DFDE49EBD
:17008500FE8F037C00C3EB9DEC64808EF063F08095F050CE0F80DEDC
:06003500E478FFF6D8FD9F
:200013007900E94400601B7A009000A0780175A000E493F2A308B8000205A0D9F4DAF275F3
:02003300A0FF2C
:20003B007800E84400600A790175A000E4F309D8FC7800E84400600C7900900001E4F0A3C3
:04005B00D8FCD9FAFA
:0D00060075810812009CE582600302000372
:04009C007582002247
:00000001FF
