:03000000020006F5
:03005F0002000399
:0300030002006296
:200062007508F4750901C2A09000011200B8D2A09000051200B8150874FFB508021509C3D0
:20008200E50894FFE50994FF40DC7508E8750903D2A09000011200B8C2A09000051200B8CD
:2000A200150874FFB508021509C3E50894FFE50994FF40DC80AAAE82AF837C007D00C3ECBD
:1500C2009EED9F500F7BC77A02DBFEDAFC0CBC00ED0D80EA22E5
:06003500E478FFF6D8FD9F
:200013007900E94400601B7A009000DB780175A000E493F2A308B8000205A0D9F4DAF275B8
:02003300A0FF2C
:20003B007800E84400600A790175A000E4F309D8FC7800E84400600C7900900001E4F0A3C3
:04005B00D8FCD9FAFA
:0D0006007581091200D7E582600302000336
:0400D700758200220C
:00000001FF
