:03000000020006F5
:03005F0002000399
:0300030002006296
:20006200C2A09000C812007EB2A09000C812007EB2A09003E812007EB2A080E6AE82AF8383
:1B0082007C007D00C3EC9EED9F500F7BC77A02DBFEDAFC0CBC00ED0D80EA2277
:06003500E478FFF6D8FD9F
:200013007900E94400601B7A009000A1780175A000E493F2A308B8000205A0D9F4DAF275F2
:02003300A0FF2C
:20003B007800E84400600A790175A000E4F309D8FC7800E84400600C7900900001E4F0A3C3
:04005B00D8FCD9FAFA
:0D00060075810912009DE582600302000370
:04009D007582002246
:00000001FF
